:020000040800F2
:10000000B00D0020390200089B2F00085521000880
:10001000992F00081B050008C934000800000000E3
:10002000000000000000000000000000E52F0008B4
:1000300009060008000000009D2F0008033000089A
:10004000530200085302000853020008530200083C
:10005000530200085302000853020008530200082C
:100060005302000853020008530200081D0500084F
:100070002905000853020008530200085302000833
:100080003505000841050008530200080000000083
:100090000000000000000000000000005302000803
:1000A00053020008530200085302000853020008DC
:1000B00053020008530200085302000859210008A7
:1000C00053020008530200085302000853020008BC
:1000D00053020008B1340008BD34000800000000DD
:1000E00053020008530200085302000800000000F9
:1000F00000000000000000000000000053020008A3
:1001000000000000530200085302000853020008D8
:1001100000000000000000000000000000000000DF
:1001200053020008530200084D050008530200085E
:100130005302000800000000000000000000000062
:100140000000000000000000000000005302000852
:100150005302000853020008590500085302000822
:1001600053020008530200080000000000000000D5
:10017000000000000000000000000000000000007F
:100180000000000053020008000000000000000012
:10019000530200085302000800F002F800F03CF897
:1001A0000AA090E8000C82448344AAF10107DA45D2
:1001B00001D100F031F8AFF2090EBAE80F0013F0E8
:1001C000010F18BFFB1A43F001031847C8340000A1
:1001D000E8340000103A24BF78C878C1FAD8520732
:1001E00024BF30C830C144BF04680C6070470000B1
:1001F0000023002400250026103A28BF78C1FBD830
:10020000520728BF30C148BF0B6070471FB503F0CD
:100210002BFA1FBD10B510BD00F046F91146FFF7CF
:10022000F5FF03F063F900F064F903B4FFF7F2FFA0
:1002300003BC00F06BF900000948804709480047FB
:10024000FEE7FEE7FEE7FEE7FEE7FEE7FEE7FEE786
:10025000FEE7FEE704480549054A064B70470000E3
:100260009930000899010008B0070020B00D002067
:10027000B0090020B009002053EA020C00F06980A8
:100280002DE9F04B4FF00006002B1FBFB3FA83F5AA
:1002900003FA05F424FA05F65E4012BF1643B2FADB
:1002A00082F502FA05F4C5F120051EBF22FA05FC0D
:1002B00044EA0C04203556EA044C4FEA144418BFB3
:1002C000641C4FF000084FF00009904271EB030CE2
:1002D00039D3002919BFB1FA81F701FA07F6B0FA4C
:1002E00080F700FA07F6C7F120071EBF20FA07FCC7
:1002F00046EA0C062037B6FBF4FCA7EB0507103FD7
:1003000007F01F0BCBF120060CFA0BFB2CFA06F6BC
:1003100044BFB3460026202FA4BF5E464FF0000B1B
:100320005BEA060C08BF4FF0010B19EB0B09ABFBA6
:10033000027C48EB0608C01B06FB02CC0BFB03CC7F
:1003400071EB0C01C1E70B46024641464846BDE849
:10035000F08B13B54FF000004FF00001AFF30080B9
:10036000BDE81C407047032A40F2308010F0030CB7
:1003700000F0158011F8013BBCF1020F624498BFF8
:1003800011F801CB00F8013B38BF11F8013BA2F195
:10039000040298BF00F801CB38BF00F8013B11F010
:1003A000030300F04F80083AC0F0088051F8043B86
:1003B000083A51F804CBA0E80810F5E7121D5CBF1D
:1003C00051F8043B40F8043BAFF30080D20724BF50
:1003D00011F8013B11F801CB48BF11F8012B24BFE4
:1003E00000F8013B00F801CB48BF00F8012B704733
:1003F0004FF0000200B5134694469646203922BFBE
:10040000A0E80C50A0E80C50B1F12001BFF4F7AF08
:10041000090728BFA0E80C5048BF0CC05DF804EBEA
:10042000890028BF40F8042B08BF704748BF20F858
:10043000022B11F0804F18BF00F8012B7047704756
:100440007047704710B5203AC0F00B80B1E81850E3
:10045000203AA0E81850B1E81850A0E81850BFF4AE
:10046000F5AF5FEA027C24BFB1E81850A0E818504D
:1004700044BF18C918C0BDE810405FEA827C24BFA1
:1004800051F8043B40F8043B08BF7047D20728BF2F
:1004900031F8023B48BF11F8012B28BF20F8023B7E
:1004A00048BF00F8012B7047754600F02BF8AE46A8
:1004B00005006946534620F00700854618B020B570
:1004C000FFF7C8FEBDE820404FF000064FF00007E0
:1004D0004FF000084FF0000B21F00701AC46ACE8EC
:1004E000C009ACE8C009ACE8C009ACE8C0098D4659
:1004F000704710B50446AFF300802046BDE81040B9
:10050000FFF793BE004870474C07002001491820B0
:10051000ABBEFEE7260002007047FEE7014800F090
:10052000D7B800000C050020014800F0D1B8000049
:100530006C050020014800F0CBB800008C060020BC
:10054000014800F0C5B80000EC060020014800F0AA
:10055000BFB80000CC050020014800F0B9B8000089
:100560002C06002001681823CAB2103AB2FBF3F23D
:10057000054B6FF30901032A9B5CC36500D9091D74
:1005800081650846704700007236000810B50146C4
:1005900000208B698A6A4FF0C07453B1B3F5005FD5
:1005A00015D072B1012A0CD0022A0AD0032A09D12F
:1005B00004E01AB1012A06D0022A03D1C96AC9018E
:1005C00000D5012010BDC96AA142FAD010BD002A91
:1005D000F7D0012AF2D0022AF3D0032AF3D010BDBB
:1005E00030B50468256825F48025256004686360BB
:1005F0008368402B036803D099600068C26030BDF7
:100600009A600068C16030BD704772B6FEE72DE9A0
:10061000F0410446876D00F0BDFA064694F83500B7
:100620000025022806D08020606584F8345001201F
:10063000BDE8F0812068016821F0160101602068A2
:10064000416921F080014161206C08B9A06C20B1A2
:100650002068016821F0080101602068016821F02C
:10066000010101600CE000F095FA801B052807D914
:1006700020206065032084F8350084F83450D7E7E3
:1006800020680068C007EED194F85C103F208840D5
:10069000B860012084F8350084F834500020C7E7A2
:1006A00090F83510022903D0802141650120704760
:1006B000052180F835100068016821F00101016012
:1006C00000207047406D704790F83500704700007B
:1006D0002DE9F84304464FF00009CDF80090634837
:1006E0004FF41651A56D0068B0FBF1F72E6894F831
:1006F0005C10082000FA01F131420FD021680A682D
:1007000052070BD50A6822F004020A6094F85C10C4
:100710008840A860606D40F00100606594F85C104E
:100720004FF0010808FA01F0304208D02168496909
:10073000090604D5A860606D40F00200606594F879
:100740005C1004208840304208D02168096889077D
:1007500004D5A860606D40F00400606594F85C10FA
:1007600010208840304218D021680968090714D544
:10077000A86020680168490304D50068000308D513
:10078000A16C07E00168C90503D4016821F00801E4
:100790000160216C09B12046884794F85C10202044
:1007A0008840304231D021680968C9062DD5A8603B
:1007B00094F8350005282068016806D0490347D51C
:1007C000006800031DD4616C1CE021F0160101607B
:1007D0002068416921F080014161206C08B9A06C5A
:1007E00020B12068016821F00801016094F85C10D4
:1007F0003F208840A86084F8358084F83490216DCB
:100800001FE0E16B09B120468847606D00282BD0BE
:10081000606DC00714D0052084F835002068016899
:1008200021F0010101600098401C0090B84203D8FB
:1008300020680068C007F6D184F8358084F83490C9
:10084000E16C002910D001B02046BDE8F043084714
:100850000168C905D5D4016821F01001016084F850
:10086000358084F83490CCE7BDE8F8832000002080
:100870002DE9F041044600F08DF906465CB10220F6
:1008800084F83500002584F834502068016821F090
:10089000010101600DE00120BDE8F08100F07AF96E
:1008A000801B052805D920206065032084F83500C9
:1008B000F2E720680068C007F0D12268116820487C
:1008C0000140D4E901031843D4E903363343184304
:1008D00063691843A3691843E3691843236A1843FB
:1008E0000843616A042903D1D4E90B13194308436F
:1008F000106020684069666A20F0070130460E43A8
:10090000012704280CD1A06A0643E06A40B12046C2
:10091000FFF73CFE20B14020606584F83570BAE7EF
:10092000206846612046FFF71DFE94F85C203F21B9
:1009300091408160656584F835700020ACE7000067
:100940003F8010F02DE9F0410446866D90F83400A8
:10095000002501280DD0012084F8340094F835706A
:100960000020012F07D084F8340002252846BDE876
:10097000F0810220FBE7022784F83570606520468D
:10098000FFF72EFE94F85C103F208840B06020688E
:10099000016841F016010160206C20B120680168F7
:1009A00041F0080101602068016841F00101016027
:1009B000DCE700002DE9F84FDFF8B8A100220124A0
:1009C0000AF1040B03254FF00F090BF1040E00BFD1
:1009D0000B6804FA02F63340B34273D10F7907F083
:1009E0000307012F01D0022F16D187684FEA420872
:1009F00005FA08FC27EA0C07D1F80CC00CFA08FC31
:100A00004CEA070CC0F808C04768B7430E79C6F334
:100A1000001696403E4346600E79F643B6070DD069
:100A2000C768560005FA06FC27EA0C07D1F808C08B
:100A30000CFA06FC4CEA070CC0F80CC00E7906F064
:100A40000306022E10D1D60800EB8608D8F82060E5
:100A500057074FEAD76C09FA0CF7BE430F6907FA3C
:100A60000CF73743C8F8207006684FEA420C05FAC5
:100A70000CF7BE430F7907F0030707FA0CF737436B
:100A800007604E6816F4403F6DD03B4E376847F420
:100A900080473760366822F0030706F480460096E8
:100AA000364E07EB060CDCF8086897073F0F09FA8B
:100AB00007F826EA0806DFF8C880404503D14FF062
:100AC00000081EE04FE0DFF8BC80404502D14FF047
:100AD000010816E0DFF8B080404502D14FF002086F
:100AE0000FE0DFF8A880404502D14FF0030808E08E
:100AF000DFF89C80404502D14FF0040801E04FF040
:100B0000070808FA07F848EA0608CCF80888DAF86F
:100B100000605746D1F804C09E435FEACC3C00D544
:100B20001E433E60DBF800605F46D1F804C09E4380
:100B30005FEA8C3C00D51E433E60DEF800607746DD
:100B4000D1F804C09E435FEACC2C00D51E433E6022
:100B5000084F0C373E68D1F804C09E435FEA8C2CE6
:100B600000D51E433E60521C102AFFF431AFBDE891
:100B7000F88F0000003C0140443802400030014042
:100B8000000002400004024000080240000C024045
:100B900000100240014880687047000014000020E7
:100BA000704770472DE9F047026800215368C66A14
:100BB00090F83E4090F83D50102C12D0402C10D0B0
:100BC000046C002C7DD05469E443A6077AD4DE433C
:100BD000B60577D4036C03B19169BDE8F04701F025
:100BE000F7BF976951694FF42A0CC9435FEAC1788E
:100BF0004FF02A4904D066452AD04E4528D010E04F
:100C0000DE43B6050DD4C16A614501D1012103E07F
:100C1000C16A494501D10821C162BDE8F04701F030
:100C20006FBE0E0716D4DE43B60513D4416CC9B2AD
:100C30001161416B09B1C96B29B9816B002907D0DA
:100C4000C96B002904D00068416841F4006141602B
:100C5000BDE8F0878E0706D4DE43B60503D4BDE8B1
:100C6000F04701F0C1BDFE43526876074FEA0252D9
:100C70001DD4002AECDB0A0608D4DA43520505D459
:100C8000490705D5BDE8F04701F052BD4907DFD45B
:100C9000D9438905DCD4212D05D0402CD8D1BDE81D
:100CA000F04701F073BEBDE8F04701F0FFBC002A39
:100CB000CEDB4A060BD4DA43520508D4490708D5DF
:100CC00001E00DE00EE0BDE8F04701F07BBC490714
:100CD000BED4D9438905BBD4BDE8F04701F009BCB7
:100CE000916970E7E10606D4D943890503D4BDE8CC
:100CF000F04701F091BF2821212D27D0292D25D0A3
:100D0000650655D4DD436D0552D4640752D590F87D
:100D10003D30448D002C9BD01269446A2270426A97
:100D2000521C4262428D521E4285428D002A8FD152
:100D30002A2B8DD10268536823F4806353602222EA
:100D4000026380F83D1000F003FC81E7250623D400
:100D5000DD436D0520D4640720D590F83D30448DE7
:100D6000002CF2D0446A24781461426A521C426218
:100D7000428D521E4285428D002AE6D1292BE4D1B4
:100D80000268536823F4806353602122026380F871
:100D90003D1000F0DEFB5BE76107D6D4D94389053F
:100DA000D3D4418D0029D0D0416A097811610AE07D
:100DB0006107CAD4D9438905C7D4418D0029C4D05D
:100DC0001169426A1170416A491C4162418D491E94
:100DD00041853DE77047000070B5040025D094F8C8
:100DE0003D00002520B984F83C50204600F042FB2D
:100DF000242084F83D002068016821F00101016091
:100E00002068016841F4004101602068016821F414
:100E10000041016000F0D2FC4D4A6168914201D866
:100E20004C4900E04C49884201D2012070BD4B4939
:100E30002368B0FBF1F15E6826F03F060E435E606A
:100E40006368934206D94FF4967359434FF47A730B
:100E5000B1FBF3F12368491C1E6A26F03F063143BB
:100E600019626168914210D84900401EB0FBF1F24E
:100E7000521CC2F30B02042A01D2042022E0B0FB70
:100E8000F1F0401CC0F30B001CE0A268F2B301EBD0
:100E9000C10303EB0116431EB3FBF6F35B1C43F4E3
:100EA00080431B0549D092B301EBC10202EB011153
:100EB000401EB0FBF1F0401CC0F30B0040F480403A
:100EC00040F400402168CA694CF6FF739A4310430E
:100ED000C861D4E9071001432068026822F0C0020B
:100EE00011430160D4E9030101432068826848F29C
:100EF000FF339A4311438160D4E905010843216817
:100F0000CA6822F0FF021043C86001E00EE016E05C
:100F10002068016841F0010101602564202084F807
:100F20003D00256384F83E50002070BD01EB410672
:100F3000431EB3FBF6F35B1CB3E70120C2E701EBF2
:100F40004101401EB0FBF1F0401CC0F30B00B7E7BD
:100F5000A086010080841E0000093D0040420F0071
:100F6000704770477047000010B513490068096862
:100F700088421FD101221149114802F034F800289B
:100F800018D011490F484FF40072097800F8011B7E
:100F90000949DC31FFF7E7F90C490A4840F202221F
:100FA000097880F8011201460348BDE810409830E6
:100FB00001F088B810BD0000300200200C000020B5
:100FC000030000202E00002001000020020000206D
:100FD000704700002DE9FC5F994692468B46044617
:100FE000DDF83080FFF7D6FD00250646009594F821
:100FF0003D00202872D1684846F2A81120270068D9
:10100000B0FBF1F000EBC00101EB00100090009884
:10101000401E009010D020688069C0438007F6D53C
:1010200094F83C00012859D0012084F83C00206845
:101030000168C9070AD00DE044F8305F6773A573F3
:10104000206940F020002061257392E0016841F0A2
:10105000010101602068016821F400610160222023
:1010600084F83D00402084F83E002564C4F82480C4
:101070000D986085608D20854848E062C4F844B0D2
:10108000C4F848A0C4F84C902565208D4FF0230883
:10109000002865D0A06B10B34149C163A16B4148E2
:1010A000C864A06B0564A06B4564A06B8564A06BED
:1010B00005652168238D1031626AA06BFFF742FC41
:1010C000B0B184F83D7084F83E5054F8400F40F0C1
:1010D000100000BF44F8040925704AE05AE084F883
:1010E0003D7084F83E5054F8400F40F08000F1E726
:1010F000CDE900864B4652465946204601F096FC03
:1011000088B1A06BFFF7CCFAA06BC56320680168BB
:1011100021F480610160258565852068016821F0E2
:101120000101016025E0208D0128206813D041686D
:1011300041F480514160206841698169009184F8DF
:101140003C50416841F4807141602068416841F43D
:10115000006141601CE0016821F480610160EAE700
:10116000CDE900864B4652465946204601F05EFCCA
:1011700010B10120BDE8FC9F2068416981690091A0
:10118000016841F40071016084F83D7084F83C50BE
:101190000020EFE70220EDE7200000200000FFFF25
:1011A00061220008212200082DE9FF4F83B09A46F2
:1011B000DDE9119793460446DDF84080FFF7EAFC2D
:1011C000054694F83D0020287FD11923012240498B
:1011D0002046009501F0F4FD002876D194F83C00FB
:1011E000012872D0012084F83C0020680168C907FA
:1011F00003D1016841F0010101602068016821F418
:1012000000610160212084F83D00402084F83E0008
:1012100000262664C4F82480A4F82A90608D2085D6
:101220002C48E062CDE9007553465A4620460499A1
:1012300001F07AFC70B930E02A463946204601F0C8
:101240003EFE58B1206C042804D12068016841F4A6
:1012500000710160012007B0BDE8F08F606A21686D
:1012600000780861606A401C6062218D491E89B265
:101270002185628D521E628522685369DB435B07BC
:101280000BD469B100781061606A401C6062208DE7
:10129000401E2085608D401E6085208D0028CBD1AA
:1012A0002A463946204601F065FD0028CAD154F887
:1012B0003D0B016841F400710160202004F81E0913
:1012C000E67766770020C6E7FFE70220C3E7000065
:1012D000020010000000FFFF2DE9FC5F002598468A
:1012E00091468A460446DDF830B00095FFF752FC7F
:1012F000074694F83D00202872D15A4846F2A811BA
:1013000020260068B0FBF1F000EBC00101EB0010FB
:1013100000900098401E009010D020688069C04363
:101320008007F6D594F83C00012859D0012084F8B4
:101330003C0020680168C9070AD00DE044F8305F1E
:101340006673A573206940F020002061257344E096
:10135000016841F0010101602068016821F4006129
:101360000160212084F83D00402084F83E0025647F
:10137000C4F824B00D986085608D20853A48E062FD
:10138000C4F844A0C4F84890C4F84C802565208D6A
:1013900000285CD0606B20B33449C163616B344872
:1013A000C864606B0564606B4564606B8564606BEA
:1013B00005652268238D1032616A606BFFF7C2FAFF
:1013C000C0B184F83D6084F83E5054F8400F40F0BE
:1013D000100000BF44F8040925700120BDE8FC9FFF
:1013E0003EE084F83D6084F83E5054F8400F40F0F1
:1013F0008000EFE72320CDE9000743464A465146E7
:10140000204601F091FB88B1606BFFF749F9606BF2
:10141000C5632068016821F48061016025856585C8
:101420002068016821F001010160D6E72068416968
:101430008169009184F83C50416841F480714160B9
:101440002068416841F4006141600020C6E784F8EB
:101450003D6084F83E5054F8400F40F04000B9E73A
:101460000220BBE7200000200000FFFF61220008EF
:1014700021220008F0B587B0064614216846FEF721
:10148000B7FF2D493068884254D12C4800240168A8
:1014900041F0020101600068694600F00200059019
:1014A000C0200090122001900120029003200390A0
:1014B000042004902248FFF77DFA2048103001688C
:1014C00041F40011016000681F4D00F40010059008
:1014D0001C4828604005C5E90104C713C5E9034756
:1014E0006C61AC61EC612C6228466C62FFF7C0F95C
:1014F00008B1FFF78AF8B563AE631248134D183090
:10150000E5E80204402091C5104845F81449AC6153
:10151000EC612C626C62FFF7ABF908B1FFF775F86C
:101520007563002211461F20AE6300F07BF81F2078
:1015300000F06AF807B0F0BD0054004030380240B7
:1015400000040240106002400C0500206C050020E1
:101550007047704702488168027811448160704783
:10156000140000200B4810B5016841F400710160BF
:10157000016841F480610160016841F4807101609B
:10158000032000F06FF80F2000F006F800F024F8B8
:10159000002010BD003C024070B50D4D04464FF4D4
:1015A0007A712878B1FBF0F00A490968B1FBF0F0D4
:1015B00000F00AFB48B9102C07D200222146501E29
:1015C00000F030F800206C6070BD012070BD00009C
:1015D00014000020200000200A4808B5016841F4EA
:1015E00080410160006800F4804000900548001FC1
:1015F000016841F080510160006800F08050009067
:1016000008BD000044380240002809DB00F01F023A
:10161000012191404009800000F1E020C0F8001154
:1016200070470000F0B40E4B1B680C46C3F3022356
:10163000C3F10705042D00D90425191D072901D27E
:10164000002300E0DB1E012606FA05F1491E2140B9
:1016500099409E40761E16403143F0BC01F035BFE4
:101660000CED00E0064900F0070208684FF6FF03A2
:10167000184040EA0220034A104308607047000007
:101680000CED00E00000FA052DE9F0470E460500DC
:1016900065D0DFF81481D8F80000F7B200F0070039
:1016A000B04207D288F80070D8F8000000F00700B8
:1016B000B04254D128683D4C810712D5400703D56C
:1016C000206840F4E05020602878000703D52068A7
:1016D00040F4604020602068A96820F0F0000843D2
:1016E00020602878C0072DD0304968680839012863
:1016F00012D0022813D0032811D0096889070029C5
:101700002DDA216821F0030101432160FFF742FA3D
:10171000814641F2883A0EE009688903EFE70968DB
:101720008901ECE7FFF736FAA0EB0901514502D930
:101730000320BDE8F0872068696800F00C00B0EB7A
:10174000810FEFD1D8F80010404601F00701B142F7
:1017500007D90770006800F00700B04201D00120EF
:10176000E7E72878400705D52068E96820F4E050CD
:10177000084320602878000706D52068296920F4EE
:10178000604040EAC100206000F038F82168084A53
:10179000C1F30311515CC84006490860064800685F
:1017A000FFF7FAFE0020C4E7003C02400838024080
:1017B0007A3600082000002018000020044805495F
:1017C00000680968044AC1F38221515CC84070472F
:1017D00020000020083802408A36000804480549E5
:1017E00000680968044AC1F34231515CC84070473F
:1017F00020000020083802408A360008154810B53D
:10180000006810F00C02144813D04110042A0FD0C5
:10181000082A0ED10F4C241F2268236802F03F02D1
:101820005B0207D52068C0F38810A0FB010106E029
:10183000084610BD2168C1F38811A1FB00010023F7
:10184000FEF71AFD2168C1F30141491C4900B0FBB4
:10185000F1F010BD083802400024F4002DE9F84FE3
:1018600004006ED02078DFF84C93C007A9F104057E
:101870004AD009F104000168C1F38101012908D0AF
:101880000068C0F3810002280AD1D9F800004002A4
:1018900006D52868800337D560680028E1D033E09A
:1018A0006068B0F5803F10D0B0F5A02F286810D048
:1018B00020F480302860286820F480202860606848
:1018C000A8B1FFF767F906460DE0286840F48030BC
:1018D000F4E740F480202860F7E700BFFFF75AF9EB
:1018E000801B642873D828688003F7D50CE0FFF7C5
:1018F00051F9064605E000BFFFF74CF9801B64284C
:10190000F0D828688003F7D42078DFF8AC8280070D
:101910004FF0000A3ED5A748001D016811F00C0FDA
:1019200008D00068C0F3810002280BD1D9F800006C
:10193000400207D42868800716D5E068012800D146
:1019400012E033E1E068B8B10120C8F80000FFF709
:1019500021F9064605E000BFFFF71CF9801B0228AD
:10196000C0D828688007F7D52868216920F0F800DA
:1019700040EAC10028600DE0C8F800A0FFF70AF9AE
:10198000064604E0FFF706F9801B02281FD82868E6
:101990008007F7D42078000722D5864F87486169F1
:1019A000703771B101210160FFF7F4F8064604E0D9
:1019B000FFF7F0F8801B022809D838688007F7D5B0
:1019C0000EE0C0F800A0FFF7E5F8064605E082E06B
:1019D000FFF7E0F8801B02287DD838688007F7D42D
:1019E0002078400768D5DFF8CCB100270BF13C0B1D
:1019F000DBF80000C0000BD4DBF8001041F0805190
:101A0000CBF80010DBF80000012700F080500090B8
:101A10006B4E3068C00510D4306840F48070306080
:101A2000FFF7B8F8009005E0FFF7B4F80099401A06
:101A3000022850D83068C005F6D55E4EA0686C36D6
:101A400001280FD00528306810D020F00100306048
:101A5000306820F004003060A068B8B1FFF79AF851
:101A600000900FE0306840F00100F4E740F004001F
:101A70003060F7E7FFF78EF80099411A41F288309D
:101A8000814266D830688007F4D50EE0FFF782F80F
:101A9000009007E0FFF77EF80099411A41F2883084
:101AA000814256D830688007F4D42FB1DBF800109B
:101AB00021F08051CBF80010A069C8B33D49091D41
:101AC0000968C1F3810102294AD00228504607D093
:101AD000C8F8600000E03CE0FFF75CF804463BE03B
:101AE0004746C8F86000FFF755F8064605E000BF16
:101AF000FFF750F8801B02282BD828688001F7D404
:101B0000D4E907010843A16A2E4A490802EB0141C2
:101B1000626A41EA8211084394F82C1040EA01619C
:101B2000C9F8001001203866FFF734F8044606E0D3
:101B30003EE000BFFFF72EF8001B022809D82868F6
:101B40008001F7D534E000BFFFF724F8001B02281E
:101B500002D90320BDE8F88F28688001F4D427E07B
:101B60000128F7D0D9F80000E26900F48001914221
:101B70001CD1226A00F03F01914217D147F6C07193
:101B8000626A0140B1EB821F10D1A26A4FF0FF33AD
:101B900000F4403103EB5202B1EB024F06D194F84E
:101BA0002C1000F07060B0EB016F01D00120D1E784
:101BB0000020CFE70438024000004742800E474231
:101BC000007000400000FFFF10B5401EB0F1807FA4
:101BD00001D3012010BD4FF0E02460610F21601798
:101BE00001F073FC0020A06107202061002010BDDF
:101BF00070477047F8B5016804460868CA684B69C1
:101C000010F00F0F4FF0000559D003F0010602F459
:101C10009077374365D0C10705D0D10503D5216C36
:101C200041F001012164410705D5D90703D0216C9A
:101C300041F002012164810705D5D90703D0216C49
:101C400041F004012164010707D502F0200131436E
:101C500003D0216C41F008012164216C00293AD0A5
:101C6000800604D5900602D5204601F0F3FA2068DC
:101C70004069216CC0F38010090700D460B320468E
:101C800001F0B3FA20684069400621D5206814307D
:101C900050E8001F21F0400140E80012002AF5D171
:101CA000A06BA8B16C490165A06BFEF7F9FC002898
:101CB00011D0A06B016D01B0BDE8F040084783066C
:101CC0000FD593060DD52046BDE8F84001F0C2BA05
:101CD0002046FFF78EFFF8BD2046FFF78AFF2564F8
:101CE000F8BD266B2023012E79D1C60677D5D606FE
:101CF00075D50868486800904869400640D5A16BD2
:101D0000086840680004000CEAD0A28D8242E7D93E
:101D1000E085C869B0F5807F2DD020680C3050E890
:101D2000001F21F4807140E80012002AF5D12068DC
:101D3000143050E8001F21F0010140E80012002A91
:101D4000F5D12068143050E8001F21F0400140E830
:101D50000012002AF5D184F83E30256320680C304B
:101D600050E8001F21F0100140E80012002AF5D1D0
:101D7000A06BFEF74CFCA08DE18D401A81B229E0EA
:101D8000A08DE18D401A81B2E08D0028A8D00029F5
:101D9000A6D020680C3050E8002F22F4907240E862
:101DA0000026002EF5D12068143050E8002F22F0D4
:101DB000010240E80026002EF5D184F83E3025636C
:101DC00020680C3050E8002F22F0100240E8002379
:101DD000002BF5D12046FFF70BFFF8BDFFE7050606
:101DE0002BD5150629D594F83D002128F5D1A068FA
:101DF000B0F5805F01D12069B0B1206A411C216239
:101E0000216800784860E08C401E0004000CE084EB
:101E1000E3D12068C16821F08001C1602068C168F9
:101E200041F04001C160D8E7206A0088C0F3080093
:101E30004860206A801C2062E5E74006CDD5500648
:101E4000CBD5CA68204622F04002CA6084F83D30F3
:101E500000F07EF9C1E70000A930000870B5040069
:101E600004D094F83D00002510B106E0012070BDBB
:101E700084F83C50204600F023F8242084F83D00EC
:101E80002068C16821F40051C160204601F042FA87
:101E90002068016921F4904101612068416921F0C5
:101EA0002A0141612068C16841F40051C160256484
:101EB000202084F83D0084F83E00002070BD000022
:101EC0002DE9F04786B0044614216846FEF790FAE3
:101ED000DFF864C102212668584803220723DFF88F
:101EE000608100258F064FF0400A4FF480696645F7
:101EF0004CD1524E1436D6F800C04CF0100CC6F837
:101F000000C0366806F010060596066846F0010621
:101F10000660006800F00100059050028DE8230083
:101F200069464046CDE90323FEF744FD464E454849
:101F3000C8463060C6E90175C6E903597561B561E7
:101F4000F561356230467562FEF792FC08B1FEF726
:101F50005CFBA663B4633D4E3A48C6E9035875611D
:101F6000B561F56135627830756286E88104304686
:101F7000FEF77EFC08B1FEF748FB666300221146BF
:101F80002520B463FFF74EFB252050E0DFF8C0C0EA
:101F900066454ED1294E1036D6F800C04CF4003CB0
:101FA000C6F800C0366806F400360596066846F0A6
:101FB00001060660006800F0010005900C208DE825
:101FC000230069464046CDE90323FEF7F3FC224E89
:101FD0002048B8463060C6E90175C6E90359756105
:101FE000B561F56135624F4630467562FEF740FCDB
:101FF00008B1FEF70AFBA663B463184E1548C6E99C
:1020000003577561B561F56135621830756286E810
:1020100001053046FEF72CFC08B1FEF7F6FA6663C0
:10202000002211462620B463FFF7FCFA2620FFF7B2
:10203000EBFA06B0BDE8F0870010014030380240EE
:102040000000024040640240CC0500202C06002025
:1020500000440040886002408C060020EC0600200E
:1020600090F83E30202B0ED159B152B190F83C304F
:10207000012B08D0012380F83C300023036301F0DA
:10208000CFB90120704702207047000010B5094900
:102090000068096888420BD1074A0A21074800F006
:1020A0007FFFBDE810400A2204490248FFF7D8BF6D
:1020B00010BD0000C8020020000000202400002005
:1020C0007047000070B5044690F83D00202836D1D6
:1020D00091B38AB394F83C00012830D0012084F8F1
:1020E0003C002162A284E28400252564212084F83A
:1020F0003D00636B1348D863636B13481864636BCC
:102100001248D864606B134605652668606B321D03
:10211000FEF718FC21686FF04000086084F83C501E
:102120002068143050E8001F41F0800140E80012A0
:10213000002AF5D1002070BDFFE70120FBE7022057
:10214000F9E700009F310008E1310008B9300008CC
:1021500070477047FEE700000148FEF723BD00000E
:102160003002002038B5806B002190F83D202B4BC9
:1021700046F2A8141B68B3FBF4F3C3EBC30303EBF1
:10218000830300933BB15B1E009303681B689B05B0
:1021900005D5009BF6E7036C43F020030364436B13
:1021A00003B1D963836B03B1D96303681C6824F45A
:1021B00080641C604185436B03B11965836B03B177
:1021C000196503681C6824F001041C6090F83D4008
:1021D0002023602C0BD0282434EA02020FD080F890
:1021E0003D3080F83E1000BFFEF7F4FD38BD80F8AA
:1021F0003D3080F83E100164FEF7D2FC38BD026825
:10220000136843F0010313600268136843F48063AA
:102210001360016380F83D40E6E7000020000020E5
:1022200070B5846B0025616B01B1CD63A16B01B109
:10223000CD63FEF747FA022811D02068016821F427
:10224000806101606585202084F83D0084F83E505F
:10225000206C40F0100020642046FEF7BBFD70BDEE
:102260002DE9F041846B94F83D2094F83E50E16AEA
:102270002068436823F440734360636B002003B11C
:10228000D863A36B03B1D863212333EA02074FF06D
:1022900022060CD036EA020701D1202D07D094F88F
:1022A0003E20002A21D0628D012A20D024E021681E
:1022B0004D6825F400654D6060852820292A02D0EC
:1022C0002A2A07D00CE0236384F83D002046FFF75C
:1022D00040F905E0266384F83D002046FFF738F911
:1022E0002068416841F440714160BDE8F081226896
:1022F000136823F4806313602268536823F44073E7
:10230000536011F5803F06D0082904D0B1F12A4F5F
:1023100001D0202904D121680A6842F400720A60C1
:1023200021684A6822F480524A6021684A6822F48F
:1023300000624A606085216C19B12046FEF74AFDB3
:10234000D3E7202184F83D1094F83E1084F83E0035
:10235000402905D0122020632046FEF702FEC4E784
:1023600020632046FEF700FEBFE7000070B504467C
:1023700090F83D0094F83E10102901D0402906D174
:10238000222804D121680A6822F400620A60282108
:1023900031EA00024FF000054FF0200626D02168F8
:1023A0004968090505D4602803D084F83D6084F8A5
:1023B0003E50256320684168090537D5416821F4FE
:1023C00000614160606B90F835203C49012A11D0D2
:1023D0000165606BFEF764F938B32068016821F08D
:1023E0000101016084F83D60606B1CE0256384F8A6
:1023F0003D10DFE7A06B0165A06BFEF751F9A0B1BE
:1024000020684169C943490605D40069616A0870BA
:10241000606A401C60622068016821F0010101606F
:1024200084F83D60A06B016D884710E094F83D1082
:10243000602910D04169C943490605D40069616A21
:102440000870606A401C60622046FEF7C3FC206C86
:10245000C1071CD115E084F83D6025644169C9437A
:10246000490605D40069616A0870606A401C6062B0
:102470002068016821F0010101602046FEF790FB11
:10248000E5E7810703D4410701D4000704D520689C
:10249000416821F4E061416094F83D00216C4907F6
:1024A0000BD5282809D10648E062256384F83D60F1
:1024B00084F83E502046FEF753FD70BD65210008AC
:1024C0000000FFFF01684A69D24352050FD46FF440
:1024D00080624A61002140F8301F202242738173DC
:1024E000026942F00402026101730120704700207A
:1024F000704710B5C26A438D0168042B06D0438D26
:10250000032B08D0438D022B1DD012E04A6822F421
:1025100080624A600CE04B6823F480634B60042ABD
:1025200006D0022A04D001680A6822F480620A6098
:1025300001680969426A1170416A491C4162418D12
:10254000491E418510BD012A30D0102A2ED0042A00
:1025500030D0022A2ED00A6842F400720A60016864
:102560000969426A1170416A491C4162428D521EDA
:102570004285026812690A70416A491C4162418DB4
:10258000491E418501684A6822F440724A60202150
:1025900080F83D1090F83E200021402A80F83E103F
:1025A0000CD012210163FEF7DCFC10BD0A6822F496
:1025B0008062D3E70A6842F48062CFE70163FEF7E6
:1025C000D3FC10BD38B590F83D10222914D1418DAF
:1025D000032912D901680969426A1170416A491CCC
:1025E0004162418D491E4185418D032904D1006816
:1025F000416821F48061416038BDC26A022AFBD083
:10260000012901D00029F7D1274946F2A813002259
:102610000968B1FBF3F101EB81010091016820230E
:10262000009C641E009422D00C68A405F8D40C68A9
:1026300024F480640C6001684C6824F4E0644C600D
:1026400001680969446A2170416A491C4162418DEF
:10265000491E418580F83D3090F83E1080F83E20BC
:1026600040291DD012210163FEF77BFC38BD046CAC
:1026700044F0200404644C6824F4E0644C60016875
:102680000969446A2170416A491C4162418D491EB1
:10269000418580F83D3080F83E20FEF79BFB38BD39
:1026A0000263FEF761FC38BD2000002010B5C26A4D
:1026B00090F83D1021290BD1418D51B1416A02683A
:1026C00009781161416A491C4162418D491E418569
:1026D00010BD20230021082A13D0202A11D012F582
:1026E000803F0ED00268546824F4E06454601122E4
:1026F000026380F83E1080F83D3000BFFEF732FCE8
:1027000010BD0268546824F4E064546002681468E0
:1027100044F400741460016380F83D3090F83E206A
:1027200080F83E10402AE9D1FEF752FC10BD0000AF
:1027300010B590F83D1090F83E30C26A048DB4B1E7
:10274000212903D0402B11D122290FD1418DE1B392
:1027500090F83E10402942D0416A02680978116120
:10276000416A491C4162418D491E418510BD2129A4
:10277000E8D120230021082A13D0202A11D012F5F5
:10278000803F0ED00268546824F4E0645460112243
:10279000026380F83E1080F83D3000BFFEF7E2FB98
:1027A00010BD0268546824F4E06454600268146840
:1027B00044F400741460016380F83D3090F83E20CA
:1027C00080F83E10402AE9D100E002E0FEF700FC6C
:1027D00010BD0068416821F48061416010BDBDE812
:1027E000104000F0D3B8000078B590F83E50C26AAF
:1027F000036B90F83D6000240168222E7AD1066DAB
:102800000EB9402D76D0056D1DB90569B5F5404F5F
:1028100009D0458D05B3468D384D012E0ED0438D20
:10282000022B3AD05DE04A698A6900920A6842F454
:1028300080720A60016D491C016578BDAA4213D1FE
:102840000A6822F480620A6001684A68120503D5AA
:102850000A6822F4806216E04A698A6900920A686E
:1028600042F400720A6039E0082A10D0202A0ED003
:10287000122B0AD0042A03D0022A01D0102AE7D151
:102880000A6842F480620A6024E0012AE0D00A6803
:1028900022F480620A600168DEE7042A21D0022A5D
:1028A0001FD0102A1DD00B6823F480630B600168D1
:1028B0000B6843F400630B6001684B681B0509D586
:1028C000AA4212D0012A10D0082A0ED0102A0CD009
:1028D000202A0AD001684A6989690091046578BD97
:1028E00008E00B6843F48063E5E74A6842F48052ED
:1028F0004A60EFE7486988690090F0E70000FFFF51
:1029000090F83E10402910D00169B1F5804F19D0E0
:10291000016DA9B3016D012910D1416C5FF0F10285
:1029200001F4407142EAD11106E0016D0029416CC9
:1029300005D0C9B241F0010100680161704701F0A2
:10294000FE01F9E790F83D102129416C09D0C9B288
:1029500041F0010102681161416B29B1C96B49B9AC
:1029600002E001F0FE01F5E7816B0029E6D0C96BBA
:102970000029E3D00068416841F40061416070477C
:10298000FFE7416CF02201F44071CBE710B590F8FD
:102990003D10026D22B3026D012A2FD0026D022A72
:1029A0001DD122292FD0428D0AB1212933D0428D49
:1029B000002A14D1212912D101684A6822F4E06268
:1029C0004A6001680A6842F400720A6000210163EB
:1029D000202280F83D2080F83E10FEF7F9FA10BD65
:1029E000C16C0129816C02D0C1F3072108E00268A3
:1029F000C9B21161016D891C016510BD816CC9B23C
:102A00000268116104E001680A6842F480720A6099
:102A1000016D491CF0E7416A026809781161416A59
:102A2000491C4162418D491E418510BD2DE9F84F79
:102A30000446006889460B9D01689846174641F494
:102A4000806101602068016841F480710160009537
:102A50004FF0011B0022594620460A9B00F0B0F9B6
:102A60004FF4007A40B120680068C00501D5C4F871
:102A700040A00320BDE8F88F216809F0FE0008613E
:102A80002B46284920460A9A00F0CEF9F0BB206870
:102A90004169806900902A4620460A9900F00FFAA1
:102AA00040B1206C04283AD12068016841F40071DB
:102AB000016034E0FEB2B8F1010F09D02168380A94
:102AC00008612A4620460A9900F0F9F90028E8D161
:102AD000206806612A4620460A9900F0F0F900288D
:102AE000DFD12068016841F4807101600095002207
:102AF000594620460A9B00F063F90028B3D12168AB
:102B000009F0FF0040F00100086100E007E02B46FB
:102B1000044920460A9A00F087F90028AAD001202B
:102B2000A8E70000020001002DE9F8430446006810
:102B30000D46DDE9089701689846164641F4807114
:102B400001604B4600224FF001112046009700F033
:102B500037F948B120680068C00502D54FF400700D
:102B600020640320BDE8F883216805F0FE000861B9
:102B70003B464A461549204600F056F988B9206878
:102B80004169806900903A464946204600F097F92D
:102B900048B1206C042804D12068016841F4007118
:102BA00001600120DEE7F5B2B8F1010F09D021681C
:102BB000300A08613A464946204600F080F900286C
:102BC000E7D1206805610020CCE700000200010089
:102BD00038B50C4690F83D20002128259543026821
:102BE0000B4605D051699169009180F83C3038BDA1
:102BF000556825F480655560E243540700D50121EE
:102C0000120601D5828900E0028B80F83C3092B236
:102C1000FDF7C7FF38BD0000F8B590F83D600446E9
:102C20000068416821F4E061416020680025416945
:102C30000091016841F0010101602068016821F400
:102C40008061016020684168090520D5474F222E28
:102C500048D02A2E46D0616B096849686185618D2C
:102C600019B1216C41F004012164416821F4006133
:102C70004160606BFDF728FD012808D0606B076597
:102C8000606BFDF70DFD10B1606B016D8847608DC5
:102C900008B320684169C943490708D40069616ADB
:102CA0000870606A401C6062608D401E608520680C
:102CB0004169C943490608D40069616A0870606ABD
:102CC000401C6062608D401E6085608D18B1206C74
:102CD00040F004002064206C00B32046BDE8F840BA
:102CE000FFF744BBA16B096849686185618D19B123
:102CF000216C41F004012164416821F400614160CC
:102D0000A06BFDF7E1FC0128C1D0A06B0765A06BAB
:102D1000FDF7C6FC0028BAD0A06BB6E72A2E06D174
:102D20002563282084F83D002046FEF711FC94F826
:102D30003D10202028290DD0216B222901D0222EE0
:102D400007D1256384F83D0084F83E502046FEF705
:102D5000FFFBF8BD0649E162256384F83D0084F875
:102D60003E502046FEF7FCF8F8BD00006521000843
:102D70000000FFFF70B516460D4604460DE02046E4
:102D8000FFF7A0FB08B1012070BD681C05D0FDF75E
:102D900001FF801BA84207D835B120684069C043B5
:102DA0004007ECD4002070BD002044F8300F2021F3
:102DB0006173A073216941F0200121612073E2E772
:102DC0002DE9F0471E4690460D460446C1F30747DD
:102DD000DDF8209008E0701C06D0FDF7DBFEA0EBCC
:102DE0000900B0420FD876B12068012F18D0806951
:102DF00025EA00000004000C14D000214145EAD06F
:102E00000020BDE8F087002044F8300F20216173D6
:102E1000A073216941F02001216120730120F0E7B6
:102E20004069E5E70121E9E72DE9F0479A46914637
:102E30000E46044600254FF02008C1F3074725E061
:102E400020684069C043400514D42068016841F4FB
:102E50000071016021686FF480604861256384F827
:102E60003D8084F83E50206C40F00400206484F8DB
:102E70003C501FE0B9F1FF3F08D0FDF78BFEA0EBFF
:102E80000A0149450CD8B9F1000F09D02068012F7B
:102E900013D0806926EA00000004000C0BD0CFE7B5
:102EA00044F8305F84F80D80A573206940F020005D
:102EB000206125730120BDE8F0874069EAE770B51D
:102EC00016460D4604460DE02046FFF7FBFA08B112
:102ED000012070BD681C05D0FDF75CFE801BA84278
:102EE00007D835B120684069C0430006ECD4002003
:102EF00070BD002044F8300F20216173A073216958
:102F000041F0200121612073E2E70000214808B56B
:102F1000016841F400110160016801F400110091A1
:102F2000016841F4800101600068002200F4800023
:102F3000009011460B20FEF775FB0B20FEF764FB9B
:102F4000002211460C20FEF76DFB0C20FEF75CFB07
:102F5000002211461020FEF765FB1020FEF754FBFF
:102F6000002211461120FEF75DFB1120FEF74CFBFD
:102F7000002211463A20FEF755FB3A20FEF744FBAB
:102F8000002211464620FEF74DFBBDE808404620D2
:102F9000FEF73ABB30380240FEE7FEE7704700001C
:102FA00010B50E4B01781B78994214D10B4B417A26
:102FB0005B1C1B7899420ED108494378491ECB709F
:102FC00043888B804468C1F80640007A88720448C0
:102FD0000380012000E00020107010BD01000020DF
:102FE00010000020704730B5002306E0C45CCD5CC3
:102FF000AC4201D0002030BD5B1C9342F6DB0120C7
:1030000030BDFEF7A7BA000030B593B03021684656
:10301000FDF7EEF914210CA8FDF7EAF91C4800258C
:10302000016841F080510160006800F0805011900B
:103030001848016841F4404101600068022400F42E
:103040004040119001200090000401908001CDE9E2
:10305000064008200890C820CDE9090404200B9000
:103060006846FEF7FBFB08B172B6FEE70CA90F201D
:1030700081E831004FF48050CDE90F0503210CA801
:10308000FEF702FB002801D072B6FEE713B030BD98
:1030900040380240007000400248016841F470016D
:1030A0000160704788ED00E010B5806B0021C1859C
:1030B000C184FEF79EFD10BD70B5846B2068406929
:1030C00094F83D10C0F3C0100025212904D118B197
:1030D000E584204600F0B0F82068406994F83E107E
:1030E000C0F38010222904D118B1E585204600F0F4
:1030F0007CF8206C40F0100020642046FEF779FD3B
:1031000070BD10B50146806B09680968C9052FD4E8
:103110000021C18501680C3151E8002F22F4807232
:1031200041E80023002BF5D10168143151E8002F4C
:1031300022F0010241E80023002BF5D1016814318F
:1031400051E8002F22F0400241E80023002BF5D186
:10315000202180F83E10016B012909D101680C3152
:1031600051E8002F22F0100241E80023002BF5D196
:10317000016B012902D0FEF789FF10BD818DFEF79A
:1031800037FD10BD10B5806B016B012902D0FEF731
:1031900097FF10BD818D4908FEF72AFD10BD10B5BF
:1031A0000146806B09680968C90516D40021C184ED
:1031B0000168143151E8002F22F0800241E8002319
:1031C000002BF5D101680C3151E8002F42F040028C
:1031D00041E80023002BF5D110BDFEF7B9FF10BD6B
:1031E00010B5806BFEF7B5FF10BD01680C3151E8DA
:1031F000002F22F4907241E80023002BF5D10168E2
:10320000143151E8002F22F0010241E80023002B85
:10321000F5D1016B012909D101680C3151E8002F6A
:1032200022F0100241E80023002BF5D1202180F884
:103230003E1000210163704701680C3151E8002FF6
:1032400022F0C00241E80023002BF5D1202180F8B4
:103250003D10704708B590F83E10222901D0022099
:1032600008BD82684FF480539A4201D1016921B1AF
:10327000816A9A421BD04AB10AE00268816A5268A8
:10328000C2F308020A80816A891C08E0026972B1EF
:103290000268526802F07F020A70816A491C8162EA
:1032A000C18D491E0904090CC18503D019E00268CB
:1032B0005268F1E70168CA6822F02002CA6001681A
:1032C000CA6822F48072CA6001684A6922F0010269
:1032D0004A61202180F83E10016B012903D0FEF7DE
:1032E000D5FE002008BD0021016301680C3151E8C2
:1032F000002F22F0100241E80023002BF5D10168D5
:103300000A68D20602D50A6849680091818DFEF7E5
:103310006FFCE6E770B5044600680169E26821F4D5
:103320004051114301612169A068E2690843616964
:10333000114308432168CA6849F20C639A43024367
:10334000CA6020684169A26921F44071114341615A
:1033500031492068884202D03049884202D1FEF7C4
:103360003DFA01E0FEF72AFAE269002319216425FB
:103370003226B2F5004F626828D0A0FB0101930FFE
:103380009200FCF779FF0146B0FBF5F06FF01802F0
:10339000504301EB800006EB0010B0FBF5F000F0AD
:1033A000F002B1FBF5F002EB0012B1FBF5F06FF0AB
:1033B0001803584301EB800006EB0010B0FBF5F05A
:1033C00000F00F0021681044886070BDA0FB01016F
:1033D00092185B41FCF750FF0146B0FBF5F002018B
:1033E000B1FBF5F06FF01803584301EB800006EBDA
:1033F000C000B0FBF5F000F0F80002EB4002B1FBBA
:10340000F5F0584301EB800006EBC000B0FBF5F08F
:1034100000F00700D6E70000001001400014014052
:1034200038B5816282850025134604460564222052
:1034300084F83E00A26B1B48D063A26B1A4810644C
:10344000A26B1A48D064A06B0A4605652168A06B80
:10345000091DFDF777FA206801684068009084F83C
:103460003C5020680C3050E8001F41F4807140E867
:103470000012002AF5D12068143050E8001F41F0F6
:10348000010140E80012002AF5D12068143050E80C
:10349000001F41F0400140E80012002AF5D1002051
:1034A00038BD00000331000885310008B93000083C
:1034B0000148FEF79FBB0000840200200148FEF790
:1034C00099BB0000C8020020FEE70907090E00288A
:1034D00004DB00F1E02080F80014704700F00F00DA
:1034E00000F1E02080F8141D704700000EB5FEF7D3
:1034F00039F8FFF789FD51480024016841F0800147
:103500000160016801F080010091016841F0010152
:103510000160016801F001010091016841F00201C0
:103520000160006800F002000090FFF7EFFC4548E2
:10353000434901604449C0E901144FF48041C0E9A6
:10354000034144618461C4610462FDF745FC08B134
:1035500072B6FEE73B483D4954304FF4E135016017
:10356000C0E901540C26C460C0E904468461C4610A
:10357000FEF774FC08B172B6FEE732483449983061
:103580000160C0E90154C460C0E904468461C461BB
:10359000FEF764FC08B172B6FEE72A480A222D49FC
:1035A0009830FEF75DFD2C4D2C4E2D4F28780028CD
:1035B000FCD001222A492B48FFF715FD60B12148B4
:1035C0004FF40071DC30CDE9000101230022A0217D
:1035D000DC38FDF7FFFC0FE021490122491C21489E
:1035E000FFF701FD50B10120CDE900600346BA8824
:1035F000A0211448FDF770FE2C70D7E7184901226E
:10360000891C1848FFF7EFFC0028CFD04FF00508C1
:10361000CDE900680123BA88A0210A48FDF75CFEC5
:103620002C704FF47A710096CDE901810123BA889C
:10363000A0210448FDF7B8FDB8E70000303802408B
:103640000054004030020020A0860100001001401C
:10365000004400402400002000000020060000205C
:103660000C000020030000204FF04070E1EE100A33
:10367000704700061016000610160000000000003B
:10368000000001020304060708090000000001020F
:1036900003040000B43600080000002024000000ED
:1036A000D4010008D8360008240000208C0D00004A
:1036B000F00100080002030000000000000000000C
:1036C0004143440000000000010000001000000021
:0836D000000000000024F400DA
:040000050800019955
:00000001FF
